:020000040000FA
:10000000000200107101000075010000770100007E
:10001000790100007B0100007D010000000000006C
:100020000000000000000000000000007F01000050
:10003000810100000000000083010000B107000002
:100040008701000087010000870100008701000090
:100050008701000087010000870100008701000080
:100060008701000087010000870100008701000070
:100070008701000087010000870100008701000060
:100080008701000087010000870100008701000050
:100090008701000087010000870100008701000040
:1000A0008701000087010000870100008701000030
:1000B0008701000087010000870100008701000020
:1000C00087010000870100008701000000F002F8AE
:1000D00000F03FF80AA090E8000C82448344AAF1A3
:1000E0000107DA4501D100F034F8AFF2090EBAE8A1
:1000F0000F0013F0010F18BFFB1A43F0010318475C
:100100002813000058130000103A24BF78C878C1A3
:10011000FAD8520724BF30C830C144BF04680C600D
:10012000704700000023002400250026103A28BF55
:1001300078C1FBD8520728BF30C148BF0B60704759
:10014000642900F0ED85002070471FB51FBD10B574
:1001500010BD00F0BCFE1146FFF7F7FF00F059F9A3
:1001600000F0DAFE03B4FFF7F2FF03BC00F0E2FE9A
:1001700008480047FEE7FEE7FEE7FEE7FEE7FEE78A
:10018000FEE7FEE7FEE7FEE703480449024A044BA8
:1001900070470000CD00000070C007200002001072
:1001A0000000001030B50A46A0281CDA032A1AD82D
:1001B000431100F01F005C06230E102804DB5C1CBA
:1001C000E3B2A0F11004E0B24406200E2F4C04EB81
:1001D0008301032585400C68AC430C6002FA00F5EE
:1001E0000C682C430C6030BD30B50A46A02811DAEB
:1001F000431100F01F00264C04EB43112AB10C6898
:10020000012585402C430C6004E00C6801258540E5
:10021000AC430C6030BD30B50A46A02811DA43115A
:1002200000F01F001A4C04EB43112AB18C69012520
:1002300085402C438C6104E0CC69012585402C432A
:10024000CC6130BD10B5A0280ADA421100F01F00C1
:100250000F4B03EB42114B690124844063404B6117
:1002600010BD30B501460020A0290EDA4A1101F078
:100270001F01074C04EB42135C6901258D402C40A3
:100280000CB1012400E00024204630BD00C0024033
:1002900000C009200021002200BF05E0002200E08C
:1002A000521C172AFCD3491C8142F7D3704730B542
:1002B0000446002504E04FF47A70FFF7EBFF6D1C55
:1002C000A542F8D330BD30B50446002504E04FF414
:1002D0007A70FFF7ECFF6D1CA542F8D330BD421ECB
:1002E00012F8013F002BFBD111F8013B002B02F863
:1002F000013BF9D17047704770477047FFFFFFFF20
:1003000050B585B0044661A16846226800F0C0FC83
:100310006E465FA1284600F03FFD69462846FFF77C
:10032000DEFF5DA12846FFF7DAFF58A16846626844
:1003300000F0AEFC69462846FFF7D1FF58A12846D9
:10034000FFF7CDFF51A16846A26800F0A1FC694605
:100350002846FFF7C4FF53A12846FFF7C0FF4BA173
:100360006846E26800F094FC69462846FFF7B7FF4C
:100370004FA12846FFF7B3FF28462169FFF7AFFFDB
:100380004CA12846FFF7ABFF28466169FFF7A7FF9E
:1003900048A12846FFF7A3FF2846A169FFF79FFF62
:1003A00044A12846FFF79BFF2846E169FFF797FF26
:1003B00040A12846FFF793FF2846216AFFF78FFFE9
:1003C0003DA12846FFF78BFF2846616AFFF787FFAC
:1003D0003EA12846FFF783FF2CA16846A26A00F0E1
:1003E00057FC69462846FFF77AFF2DA12846FFF7FC
:1003F00076FF26A16846E26A00F04AFC6946284674
:10040000FFF76DFF34A12846FFF769FF284605B0C6
:1004100050BD8CB000BF00F004F94FF4965100209D
:1004200000F015FA4FF49651032000F010FA012065
:1004300000902A200390022001900F20029027A014
:10044000049027A1059127A1069127A1079127A133
:10045000089122A0099004200A900F200B9013E02D
:100460006846FFF74DFF04462146002000F04BFA96
:100470006846FFF745FF04462146032000F043FA93
:100480004FF47A70FFF713FFEAE7000025640000DD
:1004900073637265656E3A003B74696D653A00007E
:1004A0003A0000003B626174746572793A000000A2
:1004B0003B0000002C0000003B63757272656E7497
:1004C0006C79706C6179696E673A00003B64757293
:1004D0006174696F6E3A00003B230A0073310000BB
:1004E0007332000073330000733400007335000072
:1004F00095480068C0F30160032860D192488430B9
:10050000006800F0030030B1012820D0022839D063
:10051000032853D100E000BF8B480068C0F30E00F1
:10052000401C40008949484387498839D1F88810E0
:10053000C1F30741491CB0FBF1F183487C300068EE
:10054000C0B2401CB1FBF0F08149086036E07E4843
:100550000068C0F30E00401C40007E4948437A49C1
:100560008839D1F88810C1F30741491CB0FBF1F17B
:1005700075487C300068C0B2401CB1FBF0F0744993
:1005800008601BE070480068C0F30E00401C40008B
:100590004FF4FA4148436C498839D1F88810C1F3C7
:1005A0000741491CB0FBF1F167487C300068C0B2DC
:1005B000401CB1FBF0F06649086000BF30E06248C3
:1005C0008430006800F0030030B1012810D0022808
:1005D00019D0032823D100E000BF5B487C300068BD
:1005E000C0B2401C5949B1FBF0F05949086016E00F
:1005F00055487C300068C0B2401C5649B1FBF0F051
:10060000534908600BE050487C300068C0B2401C81
:100610004FF4FA41B1FBF0F04D49086000BF00BF54
:10062000704720204C49086000BF4B48006800F02C
:1006300040000028F9D0032043497C3108600120A4
:1006400041498839C1F80C0144483F49091F0860F5
:10065000AA203D49091D08605520086001203A493B
:1006600008390860AA203849091D08605520364914
:100670008839C1F88C0000BF3348006800F0806002
:100680000028F9D00320304908390860AA202E49F3
:100690008839C1F88C0055202B49091D086000BF1E
:1006A0002948006800F040700028F9D0232026492E
:1006B0001C310860AA2024498839C1F8AC005520B3
:1006C00021492431086001201F4918310860AA20FF
:1006D0001D492431086055201B498839C1F8AC00F8
:1006E00000BF19482030006800F480600028F8D06E
:1006F0000320154918310860AA2013498839C1F828
:10070000AC00552010492431086000BF0E4820304D
:10071000006800F440700028F8D000200E4908312D
:10072000086009498839C1F8AC010D4806493C31D7
:100730000860002008492831086043F23A00024965
:10074000883908607047000088C00F4000093D00EC
:1007500000C00720001BB700A0C10F4063000500C8
:10076000DE87280419484FF0E021486170470720D0
:100770004FF0E0210861704700204FF0E021086150
:1007800070471349086070471248006870474FF07F
:10079000E02189690D4A511A6422B1FBF2F10D4A38
:1007A000126802EB4203C3EBC21201EBC2007047B6
:1007B00010B508480068401C0649086004480068F5
:1007C00010B103480068804710BD00009F860100FB
:1007D00008C0072004C0072070B50B46042835D296
:1007E000F54D2D68C5F3811434B1012C08D0022CCD
:1007F00009D0032C0FD10AE0F04D2D68A9080AE0BA
:10080000EE4D296807E0ED4D2D68690803E0EB4DDA
:100810002D68E90800BF00BF1D01B1FBF5F2E84EED
:1008200006EBC00676683270150AE54E06EBC00688
:1008300076683571E24D05EBC0056D682D7B25F0BE
:100840008005DF4E06EBC0067668357370BD70B567
:1008500004460D46042C2FD2D94A02EBC4029178EB
:10086000D74A12F83400FFF79DFCD54A02EBC402C8
:100870009178D34A02EBC4025078FFF793FCCE483C
:10088000E4380068CE4901EBC401CA7801219140E7
:100890000843CC49C1F8C4000720C94901EBC40191
:1008A000496808728320C64901EBC401496808738E
:1008B00029462046FFF790FF70BD0146002004291D
:1008C0000ED200BFBE4A02EBC1025268127D02F096
:1008D0000102002AF6D0BA4A02EBC102526810782F
:1008E000704704280ED200BFB54A02EBC00252681E
:1008F000127D02F02002002AF6D0B14A02EBC002BB
:1009000052681170704710B504460B4604E013F8A6
:10091000011B2046FFF7E5FF18780028F7D110BD2E
:1009200070B506460D46002318E03046FFF7C5FFB8
:10093000044621463046FFF7D4FF0D2C01D00A2C87
:1009400003D15BB10020E85409E0082C03D113B1B6
:10095000581EC3B202E0EC54581CC3B2E5E700BF16
:10096000184670BDFEB507460E4614461D460023C8
:10097000022E15D111E0681E012101FA00F020407D
:1009800008B1012000E00020034603F13000C1B2AD
:100990003846FFF7A6FF681EC5B2002DEBD136E042
:1009A00024B930213846FFF79CFF30E0002314E0E3
:1009B0004CB1B4FBF6F006FB1040C0B20DF80300DA
:1009C000B4FBF6F407E0FF2D01D00A2D00D906E0B4
:1009D00000200DF80300581CC3B2AB42E8DB00BF97
:1009E00013E0581E1DF80000092804DD581E1DF8EC
:1009F0000000373003E0581E1DF800003030C1B24F
:100A00003846FFF76EFF581EC3B2002BE9D1FEBD7A
:100A10002DE9F04106460C46204600F075FB0546E0
:100A2000FF232A460A213046FFF79CFF2E2130463D
:100A3000FFF757FF284600F087FB0746214600F0E6
:100A400063FC04466049204600F092FB074600F034
:100A50005BFB0546FF232A460A213046FFF782FF4B
:100A6000BDE8F0810FB42DE9FF5F10A803900F9D42
:100A700005E12C78252C72D16D1C2C78302C11DBE3
:100A8000392C0FDC002608E0A4F1300006EB8601CB
:100A900000EB4100C6B26D1C2C78302C03DB392CE6
:100AA000F2DD00E0FF26582C74D010DC442C42D03C
:100AB00006DC252C6FD0422C6ED0432C22D117E0BF
:100AC000462C6AD0532C69D0552CF7D155E0662CB2
:100AD0007CD006DC622C7AD0632C0AD0642CEDD159
:100AE00011E0732C74D0752C3AD0782CE6D156E0F6
:100AF00000BF039810F8041BCCB2039021460E9857
:100B0000FFF7EFFEB5E0039830F8041B0FFA81F908
:100B10000390B9F1000F07DAC9F100000FFA80F96C
:100B20002D210E98FFF7DDFE33464A460A210E9826
:100B3000FFF718FF9DE0039850F804AB0390BAF15B
:100B4000000F05DACAF1000A2D210E98FFF7C9FE41
:100B5000334652460A210E98FFF704FF89E089E0E8
:100B6000039830F8041B039088B2029033460A21A0
:100B7000029A0E98FFF7F6FE7BE00398006801905A
:100B80000398001D039033460A21019A0E98FFF73F
:100B9000E9FE6EE01DE067E038E047E05AE00398C8
:100BA00030F8041B039088B2029033461021029A59
:100BB0000E98FFF7D7FE5CE0A8C10F4000C00720E9
:100BC0000814000000C00F40002474492FE00DE01D
:100BD00041E00398006801900398001D039033469C
:100BE0001021019A0E98FFF7BDFE42E0039830F8FD
:100BF000041B039088B20290FF2E00D110263346CA
:100C00000221029A0E98FFF7ADFE32E003980068C9
:100C100001900398001D0390FF2E00D1102633464B
:100C20000221019A0E98FFF79DFE22E000BF039873
:100C3000C01D20F007000390D0E900780830039031
:100C40003846414600F07EF9014600900E98FFF7C5
:100C5000DFFE0EE000BF039850F804BB0390594636
:100C60000E98FFF750FE04E025210E98FFF739FE9D
:100C700000BF03E021460E98FFF733FE6D1C287875
:100C800000287FF4F6AE0390BDE8FF1F5DF814FB6B
:100C90000FB41CB5074B06AA7B4469460090059823
:100CA00000F0FDF80020694600F00CF91CBC5DF86E
:100CB00014FB0000290200002DE9F0410E46044615
:100CC000002020622046E168884730B3252805D0FF
:100CD000D4E901219047206A401CF2E7E1682046F0
:100CE00000278847050018D0A5F14100192802D82F
:100CF00020354FF400673246294620462760FFF72B
:100D00001FFA40B1012804D0F61D26F00706083668
:100D1000D8E7361DD6E72846DAE7206ABDE8F08135
:100D20002DE9F0410646002410687529314616A5C4
:100D300010D0AFF30080002802DA404213A507E08C
:100D400031688A0701D512A502E0490704D511A52B
:100D5000012401E0AFF3008000210A2206F12407FC
:100D600009E0B0FBF2FCB0FBF2F302FB1C003030F8
:100D700078541846491C0028F3D123462A463046A9
:100D8000BDE8F04100F02CB8000000002D0000008C
:100D90002B0000002000000040EA0103024630B5AD
:100DA0009B0710D14FF0013400E008C208C91D1B99
:100DB0009D4315EAC41FF8D013F0FF0102F8011B90
:100DC0000DD01B0AF8E711F8013B002B02F8013B9C
:100DD00005D011F8013B002B02F8013BF3D130BDE7
:100DE0002DE9F0470D4699469246044600F1240845
:100DF0000168880604D5E06921F01001216000E057
:100E00000120A84201DD471B00E00027A1697A19F3
:100E100002EB0900081AA0612078C00602D420461F
:100E2000AFF30080002608E0D4E901211AF806009B
:100E30009047206A401C761C20624E45F4DB2078E7
:100E4000C0060AD52046AFF3008006E0D4E90121B0
:100E500030209047206A401C2062381EA7F101070D
:100E6000F4DC07E0D4E9012118F805009047206A76
:100E7000401C2062281EA5F10105F3DC2046AFF3DB
:100E800000802078000602D50220BDE8F08701200E
:100E9000FBE7000001694A1C02610878704700B551
:100EA0008FB0CDE901310021059105497944CDE9A3
:100EB000031011466846FFF7FFFE0FB000BD0000AB
:100EC000E5FFFFFF0A6802F8010B0A6070477546EC
:100ED00000F02CF8AE4605006946534620F00700A6
:100EE000854618B020B5FFF74FF9BDE820404FF018
:100EF00000064FF000074FF000084FF0000B21F004
:100F00000701AC46ACE8C009ACE8C009ACE8C009D0
:100F1000ACE8C0098D46704710B50446AFF30080B9
:100F20002046BDE81040FFF71DB90000004870479B
:100F30000CC0072001491820ABBEFEE726000200C6
:100F40007047000021F00042A2F16052B2F5801F0C
:100F500001F0004328BFD2F17F6C0BD95FEA001C7F
:100F600043EAC20242EB507018BF704728BF20F01E
:100F700001007047B2F5801FBCBF184670474FEAAA
:100F8000410C1CF5001F02D2084600F0B8B970B53C
:100F900000F009F800000089FFF7F6BF4FF00040AD
:100FA000A0F5800070470EF1020E2EF0030E5EF8E1
:100FB000046B364205D4012A43EB030515F5001FE7
:100FC00012D8012841EB010C1CF5001F0CD80ED1E2
:100FD0004FEAD17C15F5001F0CEB4C0C0CF1020C08
:100FE00008BF4CEBD37C04E04FF0080C01E04FEA63
:100FF000D37C0CEB4C0526FA05F606F00706B6F195
:10100000040C06D20EEB860CBDE870404CF0010CCF
:101010006047DFE80CF0090B02024FF000414FF08F
:101020000000A1F5002170BD19461046012851EBC2
:10103000010418BFD4F5001484BF002001F0004162
:1010400070BD000090EA010F48BF81F0004100F13F
:101050006C81421A3CBF801A89184FEAD0524FF077
:101060007F4C1CEA410FA2EBD15318BF9CEA026FE0
:1010700000F03B804FF0004C4CEA00204CEA01218C
:1010800021FA03FC10EB0C0C1ED202F1FF325FEAD6
:101090001C2040EBC25038BF70471CF07F0F4FEA56
:1010A000400C18BFBCF17F4F38BF7047C3F120031D
:1010B000994008BF20F00100BCF17F4F38BF704756
:1010C000A0F1C04000F01BB94FEA3C00000A40EB21
:1010D000C25028BF1CF0FF0F4FEA400CE6D018BFEB
:1010E000BCF17F4F38BF7047EAE79CEA026F05D03A
:1010F00010EA5C0F08BF00F00040704710B500F028
:10110000B8F800BF64FBBE3EC10DD1F19E0206DB04
:101110004FEA002343F0004323FA02F070470042F5
:1011200007D54FEA4001B1F1FE4F02D24FF0000067
:10113000704710B500F09DF8499224800020704758
:101140006FEA200070470000B0FA80F310FA03F253
:10115000C3F19D030AD0D90501EB1220530638BF15
:10116000704700F1010008BF20F001007047000047
:101170004FF47F0C1CEAD0121EBF1CEAD11392EA76
:101180000C0F93EA0C0F00F0478090EA010F48BF64
:1011900042F480724FF0004C4CEA00204CEA0121EE
:1011A00002EB0302A0FB0113A2F50002002918BF05
:1011B00043F001035B0028BF4FEA330342EB2242B6
:1011C0005FEA132C4CEBC2502EBFBCEB436FB2F561
:1011D0007C0F70474FEA036CBCF1004F08BF20F052
:1011E0000100B2F57C0F38BF70470BD582F0FF02CB
:1011F00012F5803FC8BF704700F1C040D8BF00F073
:101200000040704700F5000C5FEA4C0C48BF704787
:10121000B0F1C04000F073B890EA010F0CEAD113AE
:1012200048BF42F48072624538BF634504D280EA09
:10123000010000F00040704710B500F01AF800BF40
:101240008900013E00F007B800F009B85FEA410CE0
:101250005FEA1C6C08D080EA010000F050B85FEA39
:10126000400C5FEA1C6CF6D14FF00040A0F5800006
:1012700070470EF1020E2EF0030E5EF8044B24426E
:1012800004D44FEA4102B2F17F4F11D84FEA400334
:10129000B3F17F4F0CD80ED14FEAD07CB2F17F4F23
:1012A0000CEB4C0C0CF1020C08BF4CEBD17C04E0B5
:1012B0004FF0080C01E04FEAD17C0CEB4C0324FA10
:1012C00003F404F00704B4F1040C06D20EEB840C12
:1012D000BDE810404CF0010C6047DFE80CF0070857
:1012E00002024FF00040A0F5800010BD0846420009
:1012F00018BFD2F1807288BF00F0004010BDFF21FE
:1013000041EAD050C005704780F0004090EA010FDC
:101310007FF59FAE81F0004100F007B890EA010F21
:1013200048BF81F000413FF594AE421A04D882F0E4
:101330000042A0EB020011444FEAD0524FF07F4C24
:101340001CEA410FA2EBD15318BF9CEA026F4AD0AE
:101350004FF0004C4CEA00204CEA012121FA03FC3A
:10136000B0EB0C0C0FD412F0FE0F36D05FEA4C003D
:101370001DD5001240EBC25038BF70471CF03F0F24
:1013800018BF70470BE0A2F101025FEA1C2040EB9E
:10139000C25038BF70471CF07F0F18BF7047C3F1B1
:1013A0002003994014BF401E20F0010070478008C0
:1013B0004FEA122308BF7047B0FA80FCA2EB0C0280
:1013C000CCF1280C60FA0CF093EA122F04BF00EB6A
:1013D000C25070474FEAC3707047130A5FEADC10CF
:1013E00008BF7047F6E79CEA026F04D010EA5C0F72
:1013F00008BF0020704710B5FFF73BFF40DFF63E07
:1014000081F00040704700000203010300C000406B
:1014100040410204000001400A0B0118008009400D
:101420000001021900C009405814000000C0072044
:101430000C0000000801000058140000000000101B
:101440000002000024010000641400000CC007200A
:10145000640000002401000000E1F5050000000028
:041460000000000088
:04000005000000CD2A
:00000001FF
