:020000040800F2
:100000000050002021020008270200082B020008EF
:100010009D020008A1020008E9020008000000009B
:100020000000000000000000000000003103000894
:100030003503000800000000390300083D030008F4
:100040004D0300084D0300084D0300084D03000850
:100050004D0300084D0300084D0300084D03000840
:100060004D0300084D0300084D0300084D03000830
:100070004D0300084D0300084D0300084D03000820
:100080004D0300084D0300084D0300084D03000810
:100090004D0300084D0300084D0300084D03000800
:1000A0004D0300084D0300084D0300084D030008F0
:1000B0004D0300084D0300084D0300084D030008E0
:1000C0004D0300084D0300084D0300084D030008D0
:1000D0004D0300084D0300084D0300084D030008C0
:1000E0004D0300084D0300084D0300080000000008
:1000F0000000000000000000000000000000000000
:1001000000000000000000005FF808F100B583B0B7
:1001100000F07AFD304B314A1360314A1360314BA5
:10012000314A03E052F8041B43F8041B2F498B4269
:10013000F8D32A4B1A682E4B9A4200D0FEE7284B80
:100140001A682C4B9A42F9D1234B2B4A13602B4A45
:1001500013602B4B02E0002243F8042B294A934200
:10016000F9D3254B1B6813B9244B1B6803B1FEE779
:1001700000F056FD694601A800F0D6FC224C234B46
:10018000E41AA410002504E0204B53F825309847CA
:100190000135AC42F8DC1E4C1E4BE41AA4100025BD
:1001A00004E01C4B53F8253098470135AC42F8DC8D
:1001B0000099019800F058FF0546174C174BE41AB8
:1001C000A41004E0013C154B53F824309847002C50
:1001D000F8DC284600F07AFCBABADECA000000203B
:1001E0009800002000000020741B00089C000020E4
:1001F00078563412325476989C000020400100203A
:100200009C000020440100207803000878030008C7
:1002100078030008780300087803000878030008D2
:1002200008B5FFF773FF00BEFEE71EF0040F0CBF1A
:10023000EFF30880EFF309807146414A10472DE93A
:10024000F04182B004468846124B5E6B9F6B9D6AFC
:100250001B6B13F0020F03D00E4BDB6A002B0CDB81
:100260000D4800F073FCCDF800803B46324629462D
:10027000204600F0D9FC00BEFEE74BF6AB6100F073
:100280004DFD0028ECD0034B4FF00042DA6202B083
:10029000BDE8F08100ED00E0141B000800BEFEE7A1
:1002A0001EF0040F0CBFEFF30880EFF309807146D6
:1002B000244A10472DE9F04182B004468846084B95
:1002C0005E6B9F6B9D6A074800F040FCCDF8008094
:1002D0003B4632462946204600F0A6FC00BEFEE71B
:1002E00000ED00E0241B00081EF0040F0CBFEFF32C
:1002F0000880EFF309807146134A10472DE9F04159
:1003000082B004468846084B5E6B9F6B9D6A074827
:1003100000F01CFCCDF800803B46324629462046C2
:1003200000F082FC00BEFEE700ED00E0301B00089C
:1003300000BEFEE700BEFEE700BEFEE7704700001D
:100340003F020008B5020008FD02000800BEFEE7FB
:10035000741B0008000000209C000020741B000893
:1003600000000000000000009C000020440100206C
:08037000000000000000000085
:10037800F8B505460C46494B98421BD003F58063F7
:10038800984217D003F58063984213D003F5806331
:1003980098420FD003F5806398420BD003F5806331
:1003A800984207D003F58063984203D0B2213C48B5
:1003B80000F0BEFBE3786BB1042B0BD0282B09D0DF
:1003C800482B07D0142B05D0102B03D01C2B01D0A1
:1003D800182B14D12388BBB1E37803F00F063046FD
:1003E80013F0100F06D0A378013BDBB2022B10D814
:1003F800A078304323785BB32E68002310E0B32144
:10040800274800F095FBE5E7B421254800F090FB6C
:10041800E2E7BB21224800F08BFBE9E76A61013380
:10042800072B14D801229A40218832EA0101F6D11B
:1004380099000F278F4026EA070600FA01F10E43BC
:10044800E1782829EAD04829E9D12A61E7E72E602E
:100458002388FF2B20D96E68002302E06A6115E02B
:100468000133072B17D803F1080101228A4021889C
:1004780032EA0101F4D199000F278F4026EA0706D6
:1004880000FA01F10E43E1782829E7D0E1784829FC
:10049800E6D12A61E4E76E60F8BD00BF00080140BC
:1004A80024190008F0B587B004460D46564B98420B
:1004B80007D003F58063984203D0C621534800F063
:1004C80037FB2B68013B524A934257D8AB881BB184
:1004D800022B01D00A2B56D1EB88B3F5804F03D0FD
:1004E8004BF6FF72934253D12B89B3F5806F54D2E8
:1004F8006B89B3F5806F01D0002B53D1AB89B3F56D
:10050800804F02D0B3F5404F51D1A688B6B226F03D
:100518003F06B6B201A800F02BFA03983D4AA2FBA9
:100528000032920C97B23E43A680218889B221F00E
:10053800010189B221802B6837498B423CD85B0086
:10054800B0FBF3F39BB2032B00D8042301372784B5
:10055800A383238843F00103238023889BB223F4D9
:10056800816323F00203AA8869890A43134323801D
:10057800AB892A891343238107B0F0BDC7212348DB
:1005880000F0D6FAA2E7C821204800F0D1FAA3E784
:10059800C9211E4800F0CCFAA6E7CA211B4800F082
:1005A800C7FAA5E7CB21194800F0C2FAA6E7CC2183
:1005B800164800F0BDFAA8E7EE884BF6FF718E42A8
:1005C8001BD003EB830303EB8303B0FBF3F39BB272
:1005D80043F48043C3F30B0109B943F0010343F427
:1005E80000434FF4967102FB01F20C4981FB0212A1
:1005F8009211013292B22284AAE703EB4303B0FBC3
:10060800F3F39BB2E6E700BF005400405819000816
:100618007F1A060083DE1B43A0860100D34D6210BB
:1006280038B504460D46104B984208D003F5806350
:10063800984204D04FF4A9710C4800F079FA012DC2
:1006480005D855B1238843F00103238038BD40F213
:100658005311064800F06CFAF3E723889BB223F0A5
:1006680001039BB22380F1E70054004058190008A9
:1006780038B504460D46104B984208D003F5806300
:10068800984204D04FF4CD710C4800F051FA012D76
:1006980005D855B1238843F48073238038BD40F2D0
:1006A8009B11064800F044FAF3E723889BB223F431
:1006B80080739BB22380F1E700540040581900086A
:1006C80038B504460D46104B984208D003F58063B0
:1006D800984204D04FF4D9710C4800F029FA012D42
:1006E80005D855B1238843F40073238038BD40F200
:1006F800B311064800F01CFAF3E723889BB223F4F1
:1007080000739BB22380F1E7005400405819000899
:1007180038B505460C46074B984208D003F5806368
:10072800984204D040F25521034800F001FAA4B2DF
:100738002C8238BD005400405819000870B5054691
:100748000C4616460E4B984208D003F58063984233
:1007580004D04FF41D710B4800F0EAF9012E05D8BA
:1007680056B144F00104A4B22C8270BD40F2752148
:10077800044800F0DDF9F3E704F0FE04F3E700BFF6
:10078800005400405819000838B505460C462F4B50
:10079800984208D003F58063984204D04FF48761EB
:1007A8002B4800F0C5F92B4B9C423BD0B4F1021FFB
:1007B80038D0294B9C4235D0B4F5020F32D0B4F56D
:1007C800901F2FD0254B9C422CD003F500039C4250
:1007D80028D0A3F5E0039C4224D0214B9C4221D091
:1007E80003F500039C421DD0A3F5E0039C4219D0F9
:1007F800102C17D01B4B9C4214D01B4B9C4211D081
:100808001A4B9C420ED03E339C420BD0184B9C4254
:1008180008D0043B9C4205D0164B9C4202D0B4F54C
:10082800806F0AD1AB8A2A8B43EA024323F07F43C5
:1008380034EA030307D0002038BD40F239410448A8
:1008480000F076F9EEE70120F6E700BF005400401B
:100858005819000882000600800086004000020047
:100868008400060001000300820007000200030064
:10087800840007000800030030B583B005460C4625
:10088800002301930093374B984208D003F5806307
:10089800984204D040F29E41334800F049F9B4F53B
:1008A800000F40D0B4F5800F3DD0B4F5001F3AD00A
:1008B800B4F5801F37D0B4F5802F34D0B4F5003F9D
:1008C80031D0B4F5803F2ED0284B9C422BD0A3F5D5
:1008D80080439C4227D0B4F1102F24D0A3F5605355
:1008E8009C4220D0A3F580639C421CD0A3F50073E2
:1008F8009C4218D0A3F580739C4214D0803B9C4244
:1009080011D0403B9C420ED0303B9C420BD0083B60
:100918009C4208D0043B9C4205D0023B9C4202D03A
:10092800013B9C4210D10095230F019324F07F4492
:10093800019B7BB1009B14330093009B1B682342EF
:100948000DD0012003B030BD40F29F41064800F0B1
:10095800EFF8E8E7240C009B18330093EDE700203C
:10096800F0E700BF0054004058190008008000104C
:1009780010B4294B5B6803F00C03042B2BD0082B15
:100988002CD013B1254B036001E0244B03602249AE
:100998004B68C3F30313224CE35CDAB20368D34019
:1009A80043604A68C2F30222A25CD2B223FA02F27E
:1009B80082604A68C2F3C222A25CD2B2D340C3604A
:1009C8004A68C2F3813217498A5CD2B2B3FBF2F3A8
:1009D800036110BC7047114B0360D8E70E4A536897
:1009E8005268C3F38343023312F4803F04D10E4AA2
:1009F80002FB03F30360CAE7074A526812F4003F98
:100A080004D0094A02FB03F30360C0E7034A02FB70
:100A180003F30360BBE700BF0010024000127A0036
:100A2800080000200400002000093D0038B50446F5
:100A38000D460E4B034003B920B940F24A410C4819
:100A480000F076F8012D05D855B10A4A93691C4380
:100A5800946138BD40F24B41054800F069F8F3E76E
:100A6800044A936923EA04049461F2E70200C0FF90
:100A7800881900080010024038B504460D460E4B90
:100A8800184200D120B940F269410C4800F050F8F2
:100A9800012D05D855B10A4AD3691C43D46138BD24
:100AA80040F26A41054800F043F8F3E7044AD36985
:100AB80023EA0404D461F2E70036018188190008AA
:100AC80000100240FEE7000008B5034800F054F8A3
:100AD8000120FFF7F7FF00BFB819000808B5034663
:100AE8000C4A12685AB10B4A1068033323F0030307
:100AF8000344094A934206D8064A136008BD054ACA
:100B080006491160EFE700F0B9FA0C2303604FF0D3
:100B1800FF30F3E7A0000020004C00204401002033
:100B280001230360014B0B60704700BF18000020D1
:100B380008B50A460146024800F004F8FFF7C4FF6A
:100B4800CC1900080FB400B583B004AB53F8042BDC
:100B580001938021074800F0CBFA002804DC03B099
:100B68005DF804EB04B070470146024800F044F811
:100B7800F5E700BFA800002010B5044600F084FA8D
:100B88000146204600F038F80121024800F034F808
:100B980010BD00BF901A00082DE9F04385B0044647
:100BA8000F46435633BB042528462146ABBE0446B0
:100BB800384605B0BDE8F08304AA1344002203F8C0
:100BC800102C4FF00408E94640464946ABBE804623
:100BD800761B002EECD03546102E28BF102500239A
:100BE800AB42E9D214F9011B04AA1A4402F8101CFA
:100BF8000133F5E70E46ECE708B5FFF7CDFF08BD72
:100C080008B500F0FDF8024A024B9A6008BD00BF23
:100C18000000000800ED00E008B500F019F908BD73
:100C2800F8B504460D4617461E462748FFF78AFFC3
:100C380021682648FFF786FF61682548FFF782FF8D
:100C4800A1682448FFF77EFFE1682348FFF77AFF91
:100C580021692248FFF776FF61692148FFF772FF93
:100C6800A1692048FFF76EFFE1691F48FFF76AFF97
:100C78001E48FFF767FF29461D48FFF763FF1D4C15
:100C8800E16A1D48FFF75EFF216B1C48FFF75AFF1A
:100C9800E16B1B48FFF756FF15F0800F0AD115F4DA
:100CA800004F0CD11748FFF74DFF06991648FFF77C
:100CB80049FFF8BD39461548FFF744FFEFE73146CD
:100CC8001348FFF73FFFEDE7F8190008081A000876
:100CD800181A0008281A0008381A0008481A0008C4
:100CE800581A0008681A0008781A0008881A0008B4
:100CF800941A000800ED00E0A41A0008B41A0008CD
:100D0800C41A0008F41A0008FC1A0008D41A0008CB
:100D1800E41A000883691A888A4201D000207047C3
:100D28000268033A012A01D900207047023383611F
:100D38000120704782B00023019300932C4A136866
:100D480043F4803313602A4B1B6803F40033009389
:100D5800019B01330193009B1BB9019BB3F5A06F65
:100D6800F1D1234B1B6813F4003F06D001230093F5
:100D7800009B012B04D002B0704700230093F7E7D3
:100D88001C4B1A6842F010021A601A6822F003021B
:100D98001A601A6842F002021A60A3F580535A6872
:100DA8005A605A685A605A6842F480625A605A68AF
:100DB80022F47C125A605A6842F4E8125A601A689F
:100DC80042F080721A600A4B1B6813F0007FFAD059
:100DD800074B5A6822F003025A605A6842F002022E
:100DE8005A60034B5B6803F00C03082BF9D1C2E788
:100DF800001002400020024008B5FFF79BFF08BD25
:100E080008B5104B1A6842F001021A6059680E4A78
:100E18000A405A601A6822F0847222F480321A60FA
:100E28001A6822F480221A605A6822F4FE025A6074
:100E38004FF41F029A60FFF7DFFF044B4FF0006288
:100E48009A6008BD001002400000FFF800ED00E0C5
:100E58001F4B5B6803F00C03042B15D0082B17D02D
:100E68001BB11C4B1C4A1A6002E01A4B1A4A1A6042
:100E7800174B5B68C3F30313184AD35CDAB21549FE
:100E88000B68D3400B607047124B134A1A60EFE7A8
:100E98000F4A53685268C3F38343023312F4803F06
:100EA80005D10F4A02FB03F30A4A1360E0E7084A38
:100EB800526812F4003F05D0094A02FB03F3054AC1
:100EC8001360D5E7044A02FB03F3024A1360CFE735
:100ED800001002403000002000127A00200000209C
:100EE80000093D0000B583B001211020FFF79EFDE9
:100EF80003238DF8063010238DF807304FF4005384
:100F0800ADF8043001A90348FFF732FA002003B016
:100F18005DF804FB0010014070B586B005460E462A
:100F280001214FF40010FFF7A7FD0024ADF80C4095
:100F38004BF6FF73ADF80E30ADF810604FF48063D8
:100F4800ADF812304FF48043ADF8143002950E4DD1
:100F580002A92846FFF7A6FA01212846FFF760FBF9
:100F680001210820FFF762FD1C238DF807300323B9
:100F78008DF80630C023ADF8043001A90348FFF707
:100F8800F7F9204606B070BD00540040000C01403F
:100F980008B54FF400310848FFF76EFC0028F8D177
:100FA80001210548FFF764FB04490348FFF7ECFB00
:100FB8000028F9D008BD00BF00540040010003001C
:100FC80008B501210448FFF77BFB04490248FFF7F5
:100FD80053FC0028F9D108BD00540040100000104F
:100FE80010B50C460A4601460948FFF7A7FB34B975
:100FF80008490748FFF7C8FB0028F9D010BD012CA5
:10100800FCD105490248FFF7BFFB0028F9D0F5E7F6
:1010180000540040820007000200030008B50146A2
:101028000448FFF775FB04490248FFF7ADFB0028A9
:10103800F9D008BD005400408400070038B50446C4
:101048000D46FFF7A5FF6000002100F0FE00FFF746
:10105800C7FF2846FFF7E2FFFFF7B2FF38BD0000E1
:1010680008B5FFF73FFF37210348FFF755FF322147
:101078000820FFF7E3FFFAE7A0860100014B186894
:10108800704700BF34000020034613F8012B002AE4
:10109800FBD1181A0138704730B5141E05469BB0AD
:1010A800184605DA8B234FF0FF302B601BB030BD9C
:1010B8004FF40273ADF80C300CBF234604F1FF3334
:1010C800029305934FF6FF7300910491ADF80E302B
:1010D80002461E9B6946284600F074F8431CBCBFB4
:1010E8008B232B60002CE1D00022009B1A70DDE7D7
:1010F80007B5009313460A46014603480068FFF700
:10110800CBFF03B05DF804FB340000202DE9F04765
:101118008E6882469E420C469146984638D8B1F869
:101128000CC01CF4906F31D062692568096902EB24
:1011380042026F1A02EBD272013355103B449D42B2
:1011480038BF1D461CF4806F30D0294600F040FBA4
:10115800064650B90C234FF0FF30CAF80030A38977
:1011680043F04003A381BDE8F0873A46216900F0C7
:10117800BBFAA38923F4906343F08003A38126611B
:101188003E44266046466561ED1BA560464500D98C
:10119800464632464946206800F0B4FAA368002063
:1011A8009B1BA36023681E442660DCE72A4600F0E8
:1011B80069FB06460028E2D12169504600F0BCFAD6
:1011C800C8E700002DE9F04F1E468B899DB01B062D
:1011D80007460D4614460ED50B6963B9402100F049
:1011E800F7FA2860286120B90C233B604FF0FF30E4
:1011F800C9E040236B610023099320238DF829302F
:1012080030234FF0010ADFF898918DF82A300396C1
:1012180023461E4613F8012B0AB1252AF9D1B6EB4D
:10122800040B0BD05B46224629463846FFF76EFF73
:10123800013000F0A380099B5B4409933378002BAD
:1012480000F09C8000234FF0FF32CDE905230136E2
:10125800049307938DF853301A933446052214F8F3
:10126800011B4F4800F032FA049BC0B9D90644BFAD
:1012780020228DF853201A0744BF2B228DF85320C3
:1012880032782A2A13D0344600200A26079A2146A3
:1012980011F8013B303B092B4BD970B914E0A0EB96
:1012A80009000AFA00F0184304902646D5E7039A85
:1012B800111D12680391002A01DB079204E05242D3
:1012C80043F002030792049323782E2B0CD1637802
:1012D8002A2B33D1039B02341A1D1B680392002B5F
:1012E800B8BF4FF0FF3305932E4E032221783046C6
:1012F80000F0ECF938B14023801B03FA00F0049B9E
:1013080001340343049314F8011B062226488DF880
:10131800281000F0DBF9002838D0244B13BB039BBE
:10132800073323F0070308330393099B43440993C6
:101338006EE706FB023201200C46A8E700230A26C6
:10134800194601340593204610F8012B303A092A32
:1013580003D9002BC8D00591C6E706FB012101235C
:101368000446F0E703AB00932A46114B04A938461C
:10137800AFF30080B0F1FF3F8046D6D1AB895B0662
:101388003FF534AF09981DB0BDE8F08F03AB00936B
:101398002A46074B04A9384600F082F8EAE700BF5E
:1013A800401B0008461B00084A1B000800000000FC
:1013B800151100082DE9F04791461F468A680B6908
:1013C80006469342B8BF1346C9F8003091F8432047
:1013D8000C46DDF8208012B10133C9F800302368CB
:1013E800990642BFD9F800300233C9F800302568A1
:1013F80015F0060507D104F1190AE368D9F80020A9
:101408009B1AAB4229DC94F843302268003318BF9A
:10141800012392062ED404F1430239463046C047D0
:10142800013021D02368E56803F00603042B18BFB8
:101438000025D9F800204FF0000908BFAD1AA368AD
:10144800226908BF25EAE5759342C4BF9B1AED18C7
:101458001A344D451AD1002008E001235246394676
:101468003046C047013003D14FF0FF30BDE8F08768
:101478000135C2E73020E11881F843005A1C94F87E
:1014880045102244023382F84310C4E70123224660
:1014980039463046C0470130E6D009F10109D8E79E
:1014A8002DE9F04306460C4601F14300097E85B05C
:1014B8006E29984617460C9B00F0BB8024D86329F8
:1014C80039D00AD8002900F0C480582900F0928049
:1014D80004F1420584F8421035E0642901D06929F5
:1014E800F6D125681A6815F0800F02F104012CD096
:1014F80012681960002A03DA2D23524284F8433017
:10150800DFF8C0C10A233FE0732900F0A68008D89D
:101518006F2921D07029DBD1226842F02002226095
:1015280003E0752918D07829D2D17822DFF898C13C
:1015380084F8452062E01A6804F14205111D19601B
:10154800136884F84230012394E0126815F0400FC4
:10155800196018BF12B2CDE7D4F800C01A681CF0A1
:10156800800F02F104051D6001D0126803E01CF031
:10157800400FFAD012886F290CBF08230A23DFF81E
:1015880044C1002184F843106568002DA8BF216874
:10159800A560A4BF21F0040121600AB9002D46D03E
:1015A8000546B2FBF3F103FB112E1CF80EE0934243
:1015B80005F801ED39D9082B0BD12368DA0708D5CE
:1015C800236962689A42DEBF302305F8013C05F1C1
:1015D800FF35401B2061CDF800803B4603AA214619
:1015E8003046FFF7E7FE013049D14FF0FF3005B034
:1015F800BDE8F083DFF8CCC084F845101D68216889
:1016080055F8042B1D600D060BD5CD0744BF41F0DE
:10161800200121601AB9236823F0200323601023D6
:10162800AFE74B0648BF92B2EFE70A46B9E705466F
:10163800C1E71A68D4F800C0151D61691CF0800F55
:101648001D60136801D0196003E01CF0400FFAD048
:101658001980002305462361BDE71A68111D19602A
:10166800156800216268284600F030F808B1401B70
:10167800606063682361002384F84330ABE7236923
:101688002A4639463046C0470130AED023689B070A
:1016980013D4E068039B9842B8BF1846A7E7012314
:1016A8004A4639463046C04701309ED00135E36886
:1016B800039A9B1AAB42F2DCEBE7002504F1190907
:1016C800F5E700BF511B0008621B000810B5C9B23E
:1016D80002449042034601D1002303E01C78013004
:1016E8008C42F6D1184610BD0A44914200F1FF33EE
:1016F80000D1704710B511F8014B914203F8014F22
:10170800F9D110BD884210B501EB020302D983421A
:101718001C4607D8421E994208D011F8014B02F81E
:10172800014FF8E783189A1A9A4200D110BD14F8AD
:10173800011D03F8011DF7E738B50546002943D018
:1017480051F8043C0C1F002BB8BFE41800F0D0F887
:101758001E4A1368104633B9636014602846BDE812
:10176800384000F0CBB8A3420BD9216862189342E5
:1017780001BF1A685B685218226063600460EDE775
:1017880013465A680AB1A242FAD919685818A042F1
:101798000BD120680144581882421960DED11068C4
:1017A8005268014419605A60D8E702D90C232B60AB
:1017B800D4E7206821188A4201BF116852680918C5
:1017C800216062605C60C9E738BD00BF2801002065
:1017D800F8B5CD1C25F0030508350C2D38BF0C25B0
:1017E800002D064601DBA94203D90C2333600020F3
:1017F800F8BD00F07DF821490A6814469CB9204FCD
:101808003B6823B92146304600F062F83860294623
:10181800304600F05DF8431C23D10C23304633607A
:1018280000F06CF8E3E723685B1B17D40B2B03D994
:1018380023601C44256004E06368A2420CBF0B606F
:101848005360304600F05AF804F10B00231D20F0D5
:101858000700C21ACCD01B1AA350C9E722466468F5
:10186800CCE7C41C24F00304A042E3D0211A30467C
:1018780000F02EF80130DDD1CFE700BF28010020AD
:101888002C010020F8B5074614460E4621B911462A
:10189800BDE8F840FFF79CBF22B9FFF74DFF25468A
:1018A8002846F8BD00F030F8A0420FD2214638464D
:1018B800FFF78EFF05460028F2D031462246FFF793
:1018C80013FF31463846FFF737FFE9E73546E7E7C4
:1018D80038B50023054C054608462360FFF7FEF897
:1018E800431C02D1236803B12B6038BD30010020AE
:1018F800014800F011B800BF38010020014800F08D
:101908000CB800BF3801002051F8043C181F002B08
:10191800BCBF0B58C0187047704770472E2E2F73E6
:10192800797374656D2F7372632F73746D333266B8
:10193800312D7374647065726970682F73746D33B8
:1019480032663130785F6770696F2E63000000007F
:101958002E2E2F73797374656D2F7372632F7374C2
:101968006D333266312D7374647065726970682FD7
:1019780073746D3332663130785F6932632E630079
:101988002E2E2F73797374656D2F7372632F737492
:101998006D333266312D7374647065726970682FA7
:1019A80073746D3332663130785F7263632E63000F
:1019B80061626F727428292C2065786974696E6772
:1019C8002E2E2E006173736572745F706172616D83
:1019D8002829206661696C65643A2066696C65200F
:1019E800222573222C206C696E652025640A00006C
:1019F800537461636B206672616D653A0A0000007A
:101A0800205230203D2020253038580A00000000A0
:101A1800205231203D2020253038580A000000008F
:101A2800205232203D2020253038580A000000007E
:101A3800205233203D2020253038580A000000006D
:101A480020523132203D20253038580A000000004D
:101A5800204C52203D2020253038580A0000000034
:101A6800205043203D2020253038580A000000002F
:101A780020505352203D20253038580A00000000DD
:101A88004653522F4641523A0A000000204346531B
:101A980052203D2020253038580A0000204846535F
:101AA80052203D2020253038580A00002044465353
:101AB80052203D2020253038580A00002041465346
:101AC80052203D2020253038580A0000204D4D4630
:101AD8004152203D20253038580A00002042464116
:101AE80052203D2020253038580A00004D69736384
:101AF8000A000000204C522F4558435F5245545568
:101B0800524E3D20253038580A0000005B4861726B
:101B1800644661756C745D0A000000005B42757371
:101B28004661756C745D0A005B5573616765466153
:101B3800756C745D0A000000232D302B2000686C42
:101B48004C006566674546470030313233343536D8
:101B58003738394142434445460030313233343511
:0B1B680036373839616263646566003F
:101B7400785634120204060800000000010203042F
:101B84000102030406070809A40000200000000065
:101B94000000000000000000010203040607080919
:101BA40000A24A04380000200000000000000000E9
:101BB4000000000000000000000000000000000021
:101BC4000000000000000000000000000000000011
:101BD4000000000000000000000000000000000001
:101BE40000000000000000000000000000000000F1
:101BF40000000000000000000000000000000000E1
:0C1C040000000000000000003254769840
:040000050800010DE1
:00000001FF
